{
  "_format": "hh-sol-artifact-1",
  "contractName": "BuyMeACoffee",
  "sourceName": "contracts/BuyMeACoffee.sol",
  "abi": [
    {
      "inputs": [],
      "stateMutability": "nonpayable",
      "type": "constructor"
    },
    {
      "anonymous": false,
      "inputs": [
        {
          "indexed": true,
          "internalType": "address",
          "name": "from",
          "type": "address"
        },
        {
          "indexed": false,
          "internalType": "uint256",
          "name": "timestamp",
          "type": "uint256"
        },
        {
          "indexed": false,
          "internalType": "string",
          "name": "name",
          "type": "string"
        },
        {
          "indexed": false,
          "internalType": "string",
          "name": "message",
          "type": "string"
        }
      ],
      "name": "newMemo",
      "type": "event"
    },
    {
      "inputs": [
        {
          "internalType": "string",
          "name": "_name",
          "type": "string"
        },
        {
          "internalType": "string",
          "name": "_message",
          "type": "string"
        }
      ],
      "name": "buyCoffee",
      "outputs": [],
      "stateMutability": "payable",
      "type": "function"
    },
    {
      "inputs": [],
      "name": "getMemos",
      "outputs": [
        {
          "components": [
            {
              "internalType": "address",
              "name": "from",
              "type": "address"
            },
            {
              "internalType": "uint256",
              "name": "timestamp",
              "type": "uint256"
            },
            {
              "internalType": "string",
              "name": "name",
              "type": "string"
            },
            {
              "internalType": "string",
              "name": "message",
              "type": "string"
            }
          ],
          "internalType": "struct BuyMeACoffee.Memo[]",
          "name": "",
          "type": "tuple[]"
        }
      ],
      "stateMutability": "view",
      "type": "function"
    },
    {
      "inputs": [
        {
          "internalType": "uint256",
          "name": "",
          "type": "uint256"
        }
      ],
      "name": "memos",
      "outputs": [
        {
          "internalType": "address",
          "name": "from",
          "type": "address"
        },
        {
          "internalType": "uint256",
          "name": "timestamp",
          "type": "uint256"
        },
        {
          "internalType": "string",
          "name": "name",
          "type": "string"
        },
        {
          "internalType": "string",
          "name": "message",
          "type": "string"
        }
      ],
      "stateMutability": "view",
      "type": "function"
    },
    {
      "inputs": [],
      "name": "withdrawTips",
      "outputs": [],
      "stateMutability": "payable",
      "type": "function"
    }
  ],
  "bytecode": "0x608060405234801561001057600080fd5b5033600160006101000a81548173ffffffffffffffffffffffffffffffffffffffff021916908373ffffffffffffffffffffffffffffffffffffffff160217905550610ec7806100616000396000f3fe60806040526004361061003f5760003560e01c8063204206e1146100445780633aaa74b214610060578063865c51721461006a578063e8dfdf0414610095575b600080fd5b61005e600480360381019061005991906108eb565b6100d5565b005b61006861025d565b005b34801561007657600080fd5b5061007f61039b565b60405161008c9190610b71565b60405180910390f35b3480156100a157600080fd5b506100bc60048036038101906100b79190610bbf565b61057e565b6040516100cc9493929190610c54565b60405180910390f35b60003411610118576040517f08c379a000000000000000000000000000000000000000000000000000000000815260040161010f90610cf3565b60405180910390fd5b600060405180608001604052803373ffffffffffffffffffffffffffffffffffffffff16815260200142815260200184815260200183815250908060018154018082558091505060019003906000526020600020906004020160009091909190915060008201518160000160006101000a81548173ffffffffffffffffffffffffffffffffffffffff021916908373ffffffffffffffffffffffffffffffffffffffff1602179055506020820151816001015560408201518160020190805190602001906101e79291906106ee565b5060608201518160030190805190602001906102049291906106ee565b5050503373ffffffffffffffffffffffffffffffffffffffff167f9d3a1a6a7a31ef2d2a038d45b3d5fadbcac748ac4ccccac9da7c8cb6b6424fc342848460405161025193929190610d13565b60405180910390a25050565b600160009054906101000a900473ffffffffffffffffffffffffffffffffffffffff1673ffffffffffffffffffffffffffffffffffffffff163373ffffffffffffffffffffffffffffffffffffffff16146102ed576040517f08c379a00000000000000000000000000000000000000000000000000000000081526004016102e490610da4565b60405180910390fd5b60004711610330576040517f08c379a000000000000000000000000000000000000000000000000000000000815260040161032790610e10565b60405180910390fd5b600160009054906101000a900473ffffffffffffffffffffffffffffffffffffffff1673ffffffffffffffffffffffffffffffffffffffff166108fc479081150290604051600060405180830381858888f19350505050158015610398573d6000803e3d6000fd5b50565b60606000805480602002602001604051908101604052809291908181526020016000905b8282101561057557838290600052602060002090600402016040518060800160405290816000820160009054906101000a900473ffffffffffffffffffffffffffffffffffffffff1673ffffffffffffffffffffffffffffffffffffffff1673ffffffffffffffffffffffffffffffffffffffff1681526020016001820154815260200160028201805461045290610e5f565b80601f016020809104026020016040519081016040528092919081815260200182805461047e90610e5f565b80156104cb5780601f106104a0576101008083540402835291602001916104cb565b820191906000526020600020905b8154815290600101906020018083116104ae57829003601f168201915b505050505081526020016003820180546104e490610e5f565b80601f016020809104026020016040519081016040528092919081815260200182805461051090610e5f565b801561055d5780601f106105325761010080835404028352916020019161055d565b820191906000526020600020905b81548152906001019060200180831161054057829003601f168201915b505050505081525050815260200190600101906103bf565b50505050905090565b6000818154811061058e57600080fd5b90600052602060002090600402016000915090508060000160009054906101000a900473ffffffffffffffffffffffffffffffffffffffff16908060010154908060020180546105dd90610e5f565b80601f016020809104026020016040519081016040528092919081815260200182805461060990610e5f565b80156106565780601f1061062b57610100808354040283529160200191610656565b820191906000526020600020905b81548152906001019060200180831161063957829003601f168201915b50505050509080600301805461066b90610e5f565b80601f016020809104026020016040519081016040528092919081815260200182805461069790610e5f565b80156106e45780601f106106b9576101008083540402835291602001916106e4565b820191906000526020600020905b8154815290600101906020018083116106c757829003601f168201915b5050505050905084565b8280546106fa90610e5f565b90600052602060002090601f01602090048101928261071c5760008555610763565b82601f1061073557805160ff1916838001178555610763565b82800160010185558215610763579182015b82811115610762578251825591602001919060010190610747565b5b5090506107709190610774565b5090565b5b8082111561078d576000816000905550600101610775565b5090565b6000604051905090565b600080fd5b600080fd5b600080fd5b600080fd5b6000601f19601f8301169050919050565b7f4e487b7100000000000000000000000000000000000000000000000000000000600052604160045260246000fd5b6107f8826107af565b810181811067ffffffffffffffff82111715610817576108166107c0565b5b80604052505050565b600061082a610791565b905061083682826107ef565b919050565b600067ffffffffffffffff821115610856576108556107c0565b5b61085f826107af565b9050602081019050919050565b82818337600083830152505050565b600061088e6108898461083b565b610820565b9050828152602081018484840111156108aa576108a96107aa565b5b6108b584828561086c565b509392505050565b600082601f8301126108d2576108d16107a5565b5b81356108e284826020860161087b565b91505092915050565b600080604083850312156109025761090161079b565b5b600083013567ffffffffffffffff8111156109205761091f6107a0565b5b61092c858286016108bd565b925050602083013567ffffffffffffffff81111561094d5761094c6107a0565b5b610959858286016108bd565b9150509250929050565b600081519050919050565b600082825260208201905092915050565b6000819050602082019050919050565b600073ffffffffffffffffffffffffffffffffffffffff82169050919050565b60006109ba8261098f565b9050919050565b6109ca816109af565b82525050565b6000819050919050565b6109e3816109d0565b82525050565b600081519050919050565b600082825260208201905092915050565b60005b83811015610a23578082015181840152602081019050610a08565b83811115610a32576000848401525b50505050565b6000610a43826109e9565b610a4d81856109f4565b9350610a5d818560208601610a05565b610a66816107af565b840191505092915050565b6000608083016000830151610a8960008601826109c1565b506020830151610a9c60208601826109da565b5060408301518482036040860152610ab48282610a38565b91505060608301518482036060860152610ace8282610a38565b9150508091505092915050565b6000610ae78383610a71565b905092915050565b6000602082019050919050565b6000610b0782610963565b610b11818561096e565b935083602082028501610b238561097f565b8060005b85811015610b5f5784840389528151610b408582610adb565b9450610b4b83610aef565b925060208a01995050600181019050610b27565b50829750879550505050505092915050565b60006020820190508181036000830152610b8b8184610afc565b905092915050565b610b9c816109d0565b8114610ba757600080fd5b50565b600081359050610bb981610b93565b92915050565b600060208284031215610bd557610bd461079b565b5b6000610be384828501610baa565b91505092915050565b610bf5816109af565b82525050565b610c04816109d0565b82525050565b600082825260208201905092915050565b6000610c26826109e9565b610c308185610c0a565b9350610c40818560208601610a05565b610c49816107af565b840191505092915050565b6000608082019050610c696000830187610bec565b610c766020830186610bfb565b8181036040830152610c888185610c1b565b90508181036060830152610c9c8184610c1b565b905095945050505050565b7f63616e27742062757920636f6666656520666f72203020657468000000000000600082015250565b6000610cdd601a83610c0a565b9150610ce882610ca7565b602082019050919050565b60006020820190508181036000830152610d0c81610cd0565b9050919050565b6000606082019050610d286000830186610bfb565b8181036020830152610d3a8185610c1b565b90508181036040830152610d4e8184610c1b565b9050949350505050565b7f6f6e6c7920746865206f776e65722063616e2077697468647261772074697073600082015250565b6000610d8e602083610c0a565b9150610d9982610d58565b602082019050919050565b60006020820190508181036000830152610dbd81610d81565b9050919050565b7f63616e2774207769746864726177203020657468000000000000000000000000600082015250565b6000610dfa601483610c0a565b9150610e0582610dc4565b602082019050919050565b60006020820190508181036000830152610e2981610ded565b9050919050565b7f4e487b7100000000000000000000000000000000000000000000000000000000600052602260045260246000fd5b60006002820490506001821680610e7757607f821691505b60208210811415610e8b57610e8a610e30565b5b5091905056fea26469706673582212202b8c99fb679422b99e61e0b6b449c3bc41af4b84f9e03838251bdadeb85199ff64736f6c63430008090033",
  "linkReferences": {},
  "deployedLinkReferences": {}
}